:1006150054656D703A0048756D693A00217E002079
:020625002000B3
:1004E200010C00010D00012000012100011A000190
:1004F2001000011300012F00013000011E00010A4B
:1005020000010E00011100010F00011200021C0087
:1005120000012200012300012400010900010B0057
:03052200010800CD
:06046E008B328A33893451
:10047400E4FFF535EDC394005015EDF404FD0534A7
:10048400E5347002053314F9742D1200370535ED87
:1004940075F00A84AC070F74362CF8A6F0ED75F0ED
:1004A4000A84FDD3940050E7EF2535F535AE071FD8
:1004B400D3EE64809480401C74362FF8E62430FE1A
:1004C400AB320534E534AA337002053314F9EE1265
:0E04D400003780D9AB32AA33A934E4020037D6
:1005D600D3EF9400EE9400400DE4FD0DBD1BFCEF3F
:0605E6001F70ED1E80EA0B
:0105EC0022EC
:0C000E001532153215321532153215323C
:01001A0022C3
:10052600E4FF75180220A007AE180518EE70F61243
:10053600000E12000E12000EE4F51F30A003751F08
:100546000175180230A007AE180518EE70F6E5180A
:100556006401600EE53125E0F531E51F42310FBF3C
:0205660008C0CB
:010568002270
:10030100C2A07FB47E001205D6D2A012000E120048
:100311000E12000E12000ED2A020A05AC28CC28E64
:1003210075180220A007AF180518EF70F6751802AE
:1003310030A007AF180518EF70F612052685312F8A
:1003410012052685313012052685311012052685C4
:10035100311312052685311ED2A0E5102513252F54
:100361002530F51FB51E0F852F2085302185100CF6
:0B03710085130D851E1AD28CD28E223F
:10037C0075350075341075330E753200E4FCFDAB29
:10038C0035AA34A933A832120049E47BE87A03F980
:10039C00F81200D48F358E348D338C32C3E49535FE
:1003AC00F535E49534F53474019533F533E4953231
:1003BC00F532E535240DF535E43534F534E43533D3
:1003CC00F533E43532F532AF35AE34AD33FC780865
:1003DC001201668F0E853511850E8C85118A538915
:0803EC00F0438901D2A9D28C73
:0103F40022E6
:1003F50075350075341075330E753200E4FCFDABB0
:1004050035AA34A933A832120049E47BE87A03F906
:10041500F81200D48F358E348D338C32C3E4953584
:10042500F535E49534F53474019533F533E49532B7
:10043500F532E5352402F535E43534F534E4353364
:10044500F533E43532F532AF35AE34AD33FC7808EB
:100455001201668F0F853512850E8D85118B538997
:080465000F438910D2ABD28EC7
:01046D00226C
:10017900C290D291C292D2AF7F147E0012037C7FCB
:10018900017E001203F51205ED7BFF7A067915E46D
:10019900FDFF1205697BFF7A06791B7D01E4FF12D9
:1001A90005697F017E001205D620A1127F017E001C
:1001B9001205D620A10D7522017509018005E4F506
:1001C90022F509120301E51D6401451C60030202C1
:1001D90060F51CF51DFB7A007925AD0C12046E7BC8
:1001E900007A007925E4FD7F061205697B007A0013
:1001F9007925AD2012046E7B007A0079257D017F77
:1002090006120569E50CC394237BFF40137A06792E
:1002190021E4FD7F0E120569750B0175230180101C
:100229007A067924E4FD7F0E120569E4F50BF523BE
:10023900E520C394327BFF40107A0679217D017F46
:100249000E120569752401800E7A0679247D017FD5
:100259000E120569E4F524E50964016005E50BB4AE
:0C0269000105D2920201B2C2920201B261
:03000B000205B734
:0405B700C0E0C0D010
:1005BB00850E8C85118A0508E508B432097508008B
:0605CB00751C00751D0106
:0505D100D0D0D0E032A3
:03001B000205914A
:10059100C0E0C0D0850F8D85128BE5226401600B10
:1005A100E52364016005E524B40104B2968002D21A
:0605B10096D0D0D0E0322C
:1005ED007F381206397F0C1206397F061206397FC5
:0405FD0001020639B8
:100639008F36120627C290C291853680D295C2950F
:01064900228E
:100627007580FFC290D291D295AF80C295EF20E737
:01063700F6CC
:01063800229F
:100569008B328A338934120601AB32AA33A9341289
:10057900001E60130534E5347002053314F91200C6
:080589001EFF12064A80E22267
:10060100ED7007EF2480F5358005EF24C0F535AF97
:04061100350206396F
:10064A00AE07120627D290C2918E80D295C2952209
:0300000002027584
:0C027500787FE4F6D8FD75813B0202BCE6
:10001E00BB010689828A83E0225002E722BBFE02E0
:09002E00E32289828A83E4932213
:10003700BB010689828A83F0225002F722BBFE01A8
:02004700F322A2
:10004900E88FF0A4CC8BF0A42CFCE98EF0A42CFC56
:100059008AF0EDA42CFCEA8EF0A4CDA8F08BF0A4D4
:100069002DCC3825F0FDE98FF0A42CCD35F0FCEB33
:100079008EF0A4FEA9F0EB8FF0A4CFC5F02ECD39F8
:0F008900FEE43CFCEAA42DCE35F0FDE43CFC2265
:1000980075F008758200EF2FFFEE33FECD33CDCC1F
:1000A80033CCC58233C5829BED9AEC99E5829840A2
:1000B8000CF582EE9BFEED9AFDEC99FC0FD5F0D67F
:1000C800E4CEFBE4CDFAE4CCF9A88222B800C1B9A9
:1000D8000059BA002DEC8BF084CFCECDFCE5F0CBE7
:1000E800F97818EF2FFFEE33FEED33FDEC33FCEB20
:1000F80033FB10D703994004EB99FB0FD8E5E4F9DB
:10010800FA227818EF2FFFEE33FEED33FDEC33FCC7
:10011800C933C910D7059BE99A4007EC9BFCE99ABB
:10012800F90FD8E0E4C9FAE4CCFB2275F010EF2F00
:10013800FFEE33FEED33FDCC33CCC833C810D70700
:100148009BEC9AE899400AED9BFDEC9AFCE899F83B
:0E0158000FD5F0DAE4CDFBE4CCFAE4C8F922CE
:10016600E8600FECC313FCED13FDEE13FEEF13FF77
:03017600D8F1229B
:10028100020179E493A3F8E493A34003F68001F219
:1002910008DFF48029E493A3F85407240CC8C3337E
:1002A100C4540F4420C8834004F456800146F6DF4D
:1002B100E4800B01020408102040809004E2E47EF7
:1002C100019360BCA3FF543F30E509541FFEE49342
:1002D100A360010ECF54C025E060A840B8E493A309
:1002E100FAE493A3F8E493A3C8C582C8CAC583CA34
:1002F100F0A3C8C582C8CAC583CADFE9DEE780BEEC
:0105250000D5
:00000001FF
