:10077400217E0020200054656D703A0048756D6933
:020784003A0039
:10053700010B00010D00010C00010E00020F00006D
:100547000211000001140001150001160001090045
:09055700010A0001130201080071
:0602BA007B007A007917B9
:0602C0008B398A3A893BEC
:1002C600E4FFF53CEDC394005015EDF404FD053B49
:1002D600E53B7002053A14F9742D120047053CED12
:1002E60075F00A84AC070F743D2CF8A6F0ED75F096
:1002F6000A84FDD3940050E7EF253CF53CAE071F7A
:10030600D3EE64809480401C743D2FF8E62430FEC2
:10031600AB39053BE53BAA3A7002053A14F9EE12F1
:0E032600004780D9AB39AA3AA93BE402004750
:10033400753C00753B10753A0E753900E4FCFDAB55
:100344003CAA3BA93AA839120059E47BE87A03F99C
:10035400F81200E48F3C8E3B8D3A8C39C3E4953C13
:10036400F53CE4953BF53B7401953AF53AE495394F
:10037400F539E53C240DF53CE4353BF53BE4353AF1
:10038400F53AE43539F539AF3CAE3BAD3AFC780883
:1003940012018C8F0B853C0D850B8C850D8A53893E
:0803A400F0438901D2A9D28CBB
:0103AC00222E
:1004E2008E398F3AE4F5C8AE39AF3AAB07AA06F9AE
:1004F200F8FF7E107D0EFC12058BC3E49FFFE49E85
:10050200FE74019DFDE49CFC780812019F8FCBAE26
:1005120039AF3AAB07AA06E4F9F8FF7E107D0EFC6C
:1005220012058BEFF404F5CA85CBCD85CACCD2ADCA
:05053200D2BDD2CA2277
:1006D700AD221202BA7B007A007917E4FD7F061279
:1006E70006AFAD301202BA7B007A0079177D017F21
:0406F700060206AF42
:1003AD00E522C394237BFF40137A077974E4FD7F24
:1003BD000E1206AF750A0175150180107A0779774F
:1003CD00E4FD7F0E1206AFE4F50AF515E530C39492
:1003DD003C7BFF40107A0779747D017F0E1206AFCA
:1003ED00751601800E7A0779777D017F0E1206AFA3
:1003FD00E4F51620A1197F017E0012071D20A1141E
:10040D00751401750901E513B4020975130122E490
:05041D00F514F50922B1
:10048C007590FFC2A7D2A6C2A5D2AF7F147E001270
:10049C0003347F787E001204E212000E1207347BC4
:1004AC00FF7A07797AE4FDFF1206AF7BFF7A0779B2
:1004BC00807D01E4FF1206AF7F017E0012071D1242
:1004CC00023FE5106401450F70F5F50FF5101206AB
:0604DC00D71203AD80E918
:03000B00020422CA
:10042200C0E0C0F0C083C082C0D075D000C000C0A0
:0D04320001C002C003C004C005C006C00721
:10043F00850B8C850D8A0508E508B432097508000F
:10044F00750F00751001E50964016005E50AB40137
:10045F0004D2A58002C2A5E513B4010675130012DC
:02046F00068302
:10047100D007D006D005D004D003D002D001D000DF
:0B048100D0D0D082D083D0F0D0E03289
:03002B000206FBCF
:1006FB00C0E0C0D0C2CFE5146401600BE515640106
:10070B006005E516B40104B2968002D296D0D0D023
:02071B00E032CA
:10000E007F381207987F0C1207987F061207987F89
:04001E00010207983C
:100798008F3D120786C290C291853D80D295C29541
:0107A800222E
:100786007580FFC290D291D295AF80C295EF20E7D7
:01079600F66C
:01079700223F
:1006AF008B398A3A893B120760AB39AA3AA93B12B8
:1006BF00002E6013053BE53B7002053A14F912005A
:0806CF002EFF1207A980E222B0
:10076000ED7007EF2480F53C8005EF24C0F53CAF29
:040770003C020798A8
:1007A900AE07120786D290C2918E80D295C2952249
:1006550041542B435343533D2247534D220D0A002A
:1006650041542B434D47463D310D0A0041542B4320
:0E0675004D47533D223130303836220D0A00F9
:090560000743616263313233008C
:10073400758920758DFD758BFDC2ABD28EC29FD29B
:060744009ED29CD2AC2203
:030023000207C60B
:0607C6008599A0C29832E3
:080003008F993099FDC299228A
:10074A0012002E6010F5993099FDC299740129F9A9
:06075A00E43AFA80EB22F4
:0905CF007BFF12074A7F037E0046
:0405D8008E358F3697
:1005DC00E4F537F538C3E5389536E53795355025CC
:1005EC00E4F583F582AF82AE83E4FCFD7BFF7AFFFA
:1005FC00F9F8D31201764003A380EA0538E5387088
:05060C00D4053780D089
:0106110022C6
:100683007A0679551205CF7A0679651205CF7BFF75
:100693007A0679711205D17B007A00794312074AF1
:0C06A3007F1A1200037F147E000205D8AD
:10056900012200012300013000013100012C0001AA
:100579002400012500013200013300012E00012170
:010589000071
:10071D00D3EF9400EE9400400DE4FD0DBD1BFCEFF6
:06072D001F70ED1E80EAC2
:0107330022A3
:0C07B90015391539153915391539153960
:0107C5002211
:10061200E4FF752A0220A007AE2A052AEE70F61220
:1006220007B91207B91207B9E4F52F30A003752FE5
:1006320001752A0230A007AE2A052AEE70F6E52AD5
:100642006401600EE53425E0F534E52F42340FBF36
:0206520008C0DE
:010654002283
:10023F00C2A07FB47E0012071DD2A01207B9120709
:10024F00B91207B91207B9D2A020A05AC28CC28E18
:10025F00752A0220A007AF2A052AEF70F6752A0229
:10026F0030A007AF2A052AEF70F612061285343236
:10027F0012061285343312061285342412061285A3
:10028F00342512061285342ED2A0E52425252532D9
:10029F002533F52FB52E0F85323085333185242246
:0B02AF00852523852E2CD28CD28E22B8
:030000000201B347
:0C01B300787FE4F6D8FD7581490201FA5E
:10002E00BB010689828A83E0225002E722BBFE02D0
:09003E00E32289828A83E4932203
:10004700BB010689828A83F0225002F722BBFE0198
:02005700F32292
:10005900E88FF0A4CC8BF0A42CFCE98EF0A42CFC46
:100069008AF0EDA42CFCEA8EF0A4CDA8F08BF0A4C4
:100079002DCC3825F0FDE98FF0A42CCD35F0FCEB23
:100089008EF0A4FEA9F0EB8FF0A4CFC5F02ECD39E8
:0F009900FEE43CFCEAA42DCE35F0FDE43CFC2255
:1000A80075F008758200EF2FFFEE33FECD33CDCC0F
:1000B80033CCC58233C5829BED9AEC99E582984092
:1000C8000CF582EE9BFEED9AFDEC99FC0FD5F0D66F
:1000D800E4CEFBE4CDFAE4CCF9A88222B800C1B999
:1000E8000059BA002DEC8BF084CFCECDFCE5F0CBD7
:1000F800F97818EF2FFFEE33FEED33FDEC33FCEB10
:1001080033FB10D703994004EB99FB0FD8E5E4F9CA
:10011800FA227818EF2FFFEE33FEED33FDEC33FCB7
:10012800C933C910D7059BE99A4007EC9BFCE99AAB
:10013800F90FD8E0E4C9FAE4CCFB2275F010EF2FF0
:10014800FFEE33FEED33FDCC33CCC833C810D707F0
:100158009BEC9AE899400AED9BFDEC9AFCE899F82B
:0E0168000FD5F0DAE4CDFBE4CCFAE4C8F922BE
:10058B00C2D5E830E70FB2D5E4C39BFBE49AFAE49B
:10059B0099F9E498F8EC30E717B2D51205C11200BF
:1005AB00E4E4C39BFBE49AFAE499F9E498F880033A
:1005BB001200E430D50DE4C39FFFE49EFEE49DFDE5
:0405CB00E49CFC228E
:10017600EB9FF5F0EA9E42F0E99D42F0EC6480C800
:0601860064809845F022A0
:10018C00E8600FECC313FCED13FDEE13FEEF13FF51
:03019C00D8F12275
:10019F00E86010ECA2E713FCED13FDEE13FEEF1376
:0401AF00FFD8F02263
:1001BF0002048CE493A3F8E493A34003F68001F2C6
:1001CF0008DFF48029E493A3F85407240CC8C33341
:1001DF00C4540F4420C8834004F456800146F6DF10
:1001EF00E4800B0102040810204080900537E47E64
:1001FF00019360BCA3FF543F30E509541FFEE49305
:10020F00A360010ECF54C025E060A840B8E493A3CB
:10021F00FAE493A3F8E493A3C8C582C8CAC583CAF6
:10022F00F0A3C8C582C8CAC583CADFE9DEE780BEAE
:01058A000070
:00000001FF
