:10060300217E0020200054656D703A0048756D69A5
:020613003A00AB
:1004AC00010C00010D00012000012100011A0001C6
:1004BC001000011300012F00013000011E00010A81
:1004CC0000010E00011100010F00011200021C00BE
:1004DC0000012200012300012400010900010B008E
:0304EC0001080004
:060280007B007A007925E5
:060286008B328A3389343B
:10028C00E4FFF535EDC394005015EDF404FD053491
:10029C00E5347002053314F9742D1200370535ED71
:1002AC0075F00A84AC070F74362CF8A6F0ED75F0D7
:1002BC000A84FDD3940050E7EF2535F535AE071FC2
:1002CC00D3EE64809480401C74362FF8E62430FE04
:1002DC00AB320534E534AA337002053314F9EE124F
:0E02EC00003780D9AB32AA33A934E4020037C0
:1005C400D3EF9400EE9400400DE4FD0DBD1BFCEF51
:0605D4001F70ED1E80EA1D
:0105DA0022FE
:0C000E001532153215321532153215323C
:01001A0022C3
:1004F000E4FF75180220A007AE180518EE70F6127A
:10050000000E12000E12000EE4F51F30A003751F3E
:100510000175180230A007AE180518EE70F6E51840
:100520006401600EE53125E0F531E51F42310FBF72
:0205300008C001
:0105320022A6
:10020500C2A07FB47E001205C4D2A012000E120057
:100215000E12000E12000ED2A020A05AC28CC28E61
:1002250075180220A007AF180518EF70F6751802AB
:1002350030A007AF180518EF70F61204F085312FBE
:100245001204F08531301204F08531101204F08566
:1002550031131204F085311ED2A0E5102513252F88
:100265002530F51FB51E0F852F2085302185100CF3
:0B02750085130D851E1AD28CD28E223C
:1002FA0075350075341075330E753200E4FCFDABAC
:10030A0035AA34A933A832120049E47BE87A03F902
:10031A00F81200D48F358E348D338C32C3E4953580
:10032A00F535E49534F53474019533F533E49532B3
:10033A00F532E535240DF535E43534F534E4353355
:10034A00F533E43532F532AF35AE34AD33FC7808E7
:10035A001201668F0E853511850E8C85118A538997
:08036A00F0438901D2A9D28CF5
:010372002268
:1003730075350075341075330E753200E4FCFDAB32
:1003830035AA34A933A832120049E47BE87A03F989
:10039300F81200D48F358E348D338C32C3E4953507
:1003A300F535E49534F53474019533F533E495323A
:1003B300F532E5352402F535E43534F534E43533E7
:1003C300F533E43532F532AF35AE34AD33FC78086E
:1003D3001201668F0F853512850E8D85118B53891A
:0803E3000F438910D2ABD28E4A
:0103EB0022EF
:10058100AD0C1202807B007A007925E4FD7F061212
:100591000533AD201202807B007A0079257D017F31
:0405A1000602053316
:1003EC0020A1127F017E001205C420A10D752201EF
:1003FC007509018005E4F522F509E50CC394237B0E
:10040C00FF40137A067903E4FD7F0E120533750B5A
:10041C000175230180107A067906E4FD7F0E120522
:10042C0033E4F50BF523E520C3943C7BFF400F7AB6
:10043C000679037D017F0E120533752401227A069D
:0D044C0079067D017F0E120533E4F52422B0
:10062700E50964016005E50BB40103D29222C29289
:0106370022A0
:10045900C290D291C292D2AF7F147E001202FA7F6B
:10046900017E001203731205DB7BFF7A067909E42A
:10047900FDFF1205337BFF7A06790F7D01E4FF1238
:1004890005337F017E001205C4120205E51D6401D2
:10049900451C70F5F51CF51D1205811203EC1206B9
:0304A9002780E6C3
:03000B000205A546
:0405A500C0E0C0D022
:1005A900850E8C85118A0508E508B432097508009D
:0605B900751C00751D0118
:0505BF00D0D0D0E032B5
:03001B0002055B80
:10055B00C0E0C0D0850F8D85128BE5226401600B46
:10056B00E52364016005E524B40104B2968002D250
:06057B0096D0D0D0E03262
:1005DB007F381206387F0C1206387F061206387FDA
:0405EB0001020638CB
:100638008F36120615C290C291853680D295C29522
:01064800228F
:100615007580FFC290D291D295AF80C295EF20E749
:01062500F6DE
:0106260022B1
:100533008B328A3389341205EFAB32AA33A93412D2
:10054300001E60130534E5347002053314F91200FC
:080553001EFF12064980E2229E
:1005EF00ED7007EF2480F5358005EF24C0F535AFAA
:0405FF003502063883
:10064900AE07120615D290C2918E80D295C295221C
:0300000002017981
:0C017900787FE4F6D8FD75813B0201C0E0
:10001E00BB010689828A83E0225002E722BBFE02E0
:09002E00E32289828A83E4932213
:10003700BB010689828A83F0225002F722BBFE01A8
:02004700F322A2
:10004900E88FF0A4CC8BF0A42CFCE98EF0A42CFC56
:100059008AF0EDA42CFCEA8EF0A4CDA8F08BF0A4D4
:100069002DCC3825F0FDE98FF0A42CCD35F0FCEB33
:100079008EF0A4FEA9F0EB8FF0A4CFC5F02ECD39F8
:0F008900FEE43CFCEAA42DCE35F0FDE43CFC2265
:1000980075F008758200EF2FFFEE33FECD33CDCC1F
:1000A80033CCC58233C5829BED9AEC99E5829840A2
:1000B8000CF582EE9BFEED9AFDEC99FC0FD5F0D67F
:1000C800E4CEFBE4CDFAE4CCF9A88222B800C1B9A9
:1000D8000059BA002DEC8BF084CFCECDFCE5F0CBE7
:1000E800F97818EF2FFFEE33FEED33FDEC33FCEB20
:1000F80033FB10D703994004EB99FB0FD8E5E4F9DB
:10010800FA227818EF2FFFEE33FEED33FDEC33FCC7
:10011800C933C910D7059BE99A4007EC9BFCE99ABB
:10012800F90FD8E0E4C9FAE4CCFB2275F010EF2F00
:10013800FFEE33FEED33FDCC33CCC833C810D70700
:100148009BEC9AE899400AED9BFDEC9AFCE899F83B
:0E0158000FD5F0DAE4CDFBE4CCFAE4C8F922CE
:10016600E8600FECC313FCED13FDEE13FEEF13FF77
:03017600D8F1229B
:10018500020459E493A3F8E493A34003F68001F233
:1001950008DFF48029E493A3F85407240CC8C3337B
:1001A500C4540F4420C8834004F456800146F6DF4A
:1001B500E4800B01020408102040809004ACE47E2A
:1001C500019360BCA3FF543F30E509541FFEE4933F
:1001D500A360010ECF54C025E060A840B8E493A306
:1001E500FAE493A3F8E493A3C8C582C8CAC583CA31
:1001F500F0A3C8C582C8CAC583CADFE9DEE780BEE9
:0104EF00000C
:00000001FF
