:10075F00217E0020200054656D703A0048756D6948
:02076F003A004E
:10043600010B00010D00010C00010E00020F00006F
:100446000211000001140001150001160001090047
:09045600010A0001130201080073
:060343007B007A0079172F
:060349008B368A3789386B
:10034F00E4FFF539EDC394005015EDF404FD0538C5
:10035F00E5387002053714F9742D1200470539ED91
:10036F0075F00A84AC070F743A2CF8A6F0ED75F00F
:10037F000A84FDD3940050E7EF2539F539AE071FF6
:10038F00D3EE64809480401C743A2FF8E62430FE3C
:10039F00AB360538E538AA377002053714F9EE1277
:0E03AF00004780D9AB36AA37A938E4020047D0
:1003BD0075390075381075370E753600E4FCFDABD8
:1003CD0039AA38A937A836120059E47BE87A03F91F
:1003DD00F81200E48F398E388D378C36C3E4953999
:1003ED00F539E49538F53874019537F537E49536D8
:1003FD00F536E539240DF539E43538F538E435377A
:10040D00F537E43536F536AF39AE38AD37FC78080B
:10041D0012018C8F0B85390D850B8C850D8A5389B7
:08042D00F0438901D2A9D28C31
:0104350022A4
:10048C008E368F37E4F5C8AE36AF37AB07AA06F910
:10049C00F8FF7E107D0EFC120531C3E49FFFE49E35
:1004AC00FE74019DFDE49CFC780812019F8FCBAE7D
:1004BC0036AF37AB07AA06E4F9F8FF7E107D0EFCC9
:1004CC00120531EFF404F5CA85CBCD85CACCD2AD7B
:0504DC00D2BDD2CA22CE
:1006C200AD221203437B007A007917E4FD7F061204
:1006D200069AAD301203437B007A0079177D017FC1
:0406E2000602069A6C
:10023F00E522C394237BFF40137A07795FE4FD7FA8
:10024F000E12069A750A0175150180107A077962E8
:10025F00E4FD7F0E12069AE4F50AF515E530C39416
:10026F003C7BFF40107A07795F7D017F0E12069A63
:10027F00751601800E7A0779627D017F0E12069A3C
:10028F00E4F5167BFF7A07795F30A704E4FD80025F
:10029F007D017F0E12069A20A1197F017E001207A1
:1002AF000820A114751401750901E513B40209752D
:0902BF00130122E4F514F50922F3
:1004E1007590FFD2AF7F147E001203BD7FE87E03BB
:1004F10012048C12000E12071F7BFF7A077965E444
:10050100FDFF12069A7BFF7A07796B7D01E4FF12EA
:10051100069A7F017E001207081202C8E5106401E5
:10052100450F70F5F50FF5101206C212023F80E972
:03000B000205FBF0
:0405FB00C0E0C0D0CC
:1005FF00850B8C850D8A0508E508B432097508004E
:10060F00750F00751001E50964016005E50AB40175
:0F061F0004D2B78002C2B7E513B401037513000C
:05062E00D0D0D0E03245
:03002B000206E6E4
:1006E600C0E0C0D0C2CFE5146401600BE51564011B
:1006F6006005E516B40104B2968002D296D0D0D039
:02070600E032DF
:10000E007F381207837F0C1207837F061207837FC8
:04001E000102078351
:100783008F3A120771C290C291853A80D295C29571
:010793002243
:100771007580FFC290D291D295AF80C295EF20E7EC
:01078100F681
:010782002254
:10069A008B368A37893812074BAB36AA37A93812F4
:1006AA00002E60130538E5387002053714F9120078
:0806BA002EFF12079480E222DA
:10074B00ED7007EF2480F5398005EF24C0F539AF44
:04075B0039020783D5
:10079400AE07120771D290C2918E80D295C2952273
:1006330041542B435343533D2247534D220D0A004C
:1006430041542B434D47463D310D0A0041542B4342
:100653004D47533D22313339303235343033353819
:04066300220D0A005A
:0B045F0009405761726E696E67210052
:10071F00758920758DFD758BFDC2ABD28EC29FD2B0
:06072F009ED29CD2AC2218
:030023000207B120
:0507B100859935C29896
:0107B6003210
:080003008F993099FDC299228A
:1007350012002E6010F5993099FDC299740129F9BE
:06074500E43AFA80EB2209
:090575007BFF1207357F037E00B5
:04057E008E498F4AC9
:10058200E4F54BF54CC3E54C954AE54B95495025AE
:10059200E4F583F582AF82AE83E4FCFD7BFF7AFF54
:1005A200F9F8D31201764003A380EA054CE54C70BA
:0505B200D4054B80D0D0
:0105B7002221
:100667007A0679331205757A0679431205757BFF89
:100677007A06794F1207357F057E0012057E7B00CB
:100687007A0079401207357F1A1200037F0A7E002D
:0306970002057EDB
:10046A00012200012300013000013100012C0001AA
:10047A002400012500013200013300012E00012170
:01048A000071
:10070800D3EF9400EE9400400DE4FD0DBD1BFCEF0B
:060718001F70ED1E80EAD7
:01071E0022B8
:0C07A40015361536153615361536153687
:0107B0002226
:1005B800E4FF752A0220A007AE2A052AEE70F6127B
:1005C80007A41207A41207A4E4F52F30A003752F7F
:1005D80001752A0230A007AE2A052AEE70F6E52A30
:1005E8006401600EE53425E0F534E52F42340FBF91
:0205F80008C039
:0105FA0022DE
:1002C800C2A07FB47E00120708D2A01207A41207AA
:1002D800A41207A41207A4D2A020A05AC28CC28ECE
:1002E800752A0220A007AF2A052AEF70F6752A02A0
:1002F80030A007AF2A052AEF70F61205B885343208
:100308001205B88534331205B88534241205B8852A
:1003180034251205B885342ED2A0E52425252532AA
:100328002533F52FB52E0F853230853331852422BC
:0B033800852523852E2CD28CD28E222E
:030000000201B347
:0C01B300787FE4F6D8FD75814C0201FA5B
:10002E00BB010689828A83E0225002E722BBFE02D0
:09003E00E32289828A83E4932203
:10004700BB010689828A83F0225002F722BBFE0198
:02005700F32292
:10005900E88FF0A4CC8BF0A42CFCE98EF0A42CFC46
:100069008AF0EDA42CFCEA8EF0A4CDA8F08BF0A4C4
:100079002DCC3825F0FDE98FF0A42CCD35F0FCEB23
:100089008EF0A4FEA9F0EB8FF0A4CFC5F02ECD39E8
:0F009900FEE43CFCEAA42DCE35F0FDE43CFC2255
:1000A80075F008758200EF2FFFEE33FECD33CDCC0F
:1000B80033CCC58233C5829BED9AEC99E582984092
:1000C8000CF582EE9BFEED9AFDEC99FC0FD5F0D66F
:1000D800E4CEFBE4CDFAE4CCF9A88222B800C1B999
:1000E8000059BA002DEC8BF084CFCECDFCE5F0CBD7
:1000F800F97818EF2FFFEE33FEED33FDEC33FCEB10
:1001080033FB10D703994004EB99FB0FD8E5E4F9CA
:10011800FA227818EF2FFFEE33FEED33FDEC33FCB7
:10012800C933C910D7059BE99A4007EC9BFCE99AAB
:10013800F90FD8E0E4C9FAE4CCFB2275F010EF2FF0
:10014800FFEE33FEED33FDCC33CCC833C810D707F0
:100158009BEC9AE899400AED9BFDEC9AFCE899F82B
:0E0168000FD5F0DAE4CDFBE4CCFAE4C8F922BE
:10053100C2D5E830E70FB2D5E4C39BFBE49AFAE4F5
:1005410099F9E498F8EC30E717B2D5120567120073
:10055100E4E4C39BFBE49AFAE499F9E498F8800394
:100561001200E430D50DE4C39FFFE49EFEE49DFD3F
:04057100E49CFC22E8
:10017600EB9FF5F0EA9E42F0E99D42F0EC6480C800
:0601860064809845F022A0
:10018C00E8600FECC313FCED13FDEE13FEEF13FF51
:03019C00D8F12275
:10019F00E86010ECA2E713FCED13FDEE13FEEF1376
:0401AF00FFD8F02263
:1001BF000204E1E493A3F8E493A34003F68001F271
:1001CF0008DFF48029E493A3F85407240CC8C33341
:1001DF00C4540F4420C8834004F456800146F6DF10
:1001EF00E4800B0102040810204080900436E47E66
:1001FF00019360BCA3FF543F30E509541FFEE49305
:10020F00A360010ECF54C025E060A840B8E493A3CB
:10021F00FAE493A3F8E493A3C8C582C8CAC583CAF6
:10022F00F0A3C8C582C8CAC583CADFE9DEE780BEAE
:01048B000070
:00000001FF
