:10078400217E0020200054656D703A0048756D6923
:020794003A0029
:10048C00010B00010D00010C00010E00020F000019
:10049C0002110000011400011500011600010900F1
:0904AC00010A000113020108001D
:0602BA007B007A007917B9
:0602C0008B3A8A3B893CE9
:1002C600E4FFF53DEDC394005015EDF404FD053C47
:1002D600E53C7002053B14F9742D120047053DED0F
:1002E60075F00A84AC070F743E2CF8A6F0ED75F095
:1002F6000A84FDD3940050E7EF253DF53DAE071F78
:10030600D3EE64809480401C743E2FF8E62430FEC1
:10031600AB3A053CE53CAA3B7002053B14F9EE12EC
:0E032600004780D9AB3AAA3BA93CE40200474D
:10033400753D00753C10753B0E753A00E4FCFDAB51
:100344003DAA3CA93BA83A120059E47BE87A03F998
:10035400F81200E48F3D8E3C8D3B8C3AC3E4953D0E
:10036400F53DE4953CF53C7401953BF53BE4953A49
:10037400F53AE53D240DF53DE4353CF53CE4353BEB
:10038400F53BE4353AF53AAF3DAE3CAD3BFC78087D
:1003940012018C8F0B853D0D850B8C850D8A53893D
:0803A400F0438901D2A9D28CBB
:0103AC00222E
:100539008E3A8F3BE4F5C8AE3AAF3BAB07AA06F952
:10054900F8FF7E107D0EFC12058EC3E49FFFE49E2A
:10055900FE74019DFDE49CFC780812019F8FCBAECF
:100569003AAF3BAB07AA06E4F9F8FF7E107D0EFC13
:1005790012058EEFF404F5CA85CBCD85CACCD2AD70
:05058900D2BDD2CA2220
:1006E700AD221202BA7B007A007917E4FD7F061269
:1006F70006BFAD301202BA7B007A0079177D017F01
:04070700060206BF21
:1003AD00E522C394237BFF40137A077984E4FD7F14
:1003BD000E1206BF750A0175150180107A0779872F
:1003CD00E4FD7F0E1206BFE4F50AF515E530C39482
:1003DD003C7BFF40107A0779847D017F0E1206BFAA
:1003ED00751601800E7A0779877D017F0E1206BF83
:1003FD00E4F51620A1197F017E0012072D20A1140E
:10040D00751401750901E513B4020975130122E490
:05041D00F514F50922B1
:1004E3007590FFC2A7D2A6C2A5D2AF7F147E001219
:1004F30003347FE87E0312053912000E1207447B92
:10050300FF7A07798AE4FDFF1206BF7BFF7A07793A
:10051300907D01E4FF1206BF7F017E0012072D12BA
:10052300023FE5106401450F70F5F50FF510120653
:06053300E71203AD80E9B0
:03000B00020422CA
:10042200C0E0C0F0C083C082C0D075D000C000C0A0
:0D04320001C002C003C004C005C006C00721
:10043F00850B8C850D8A0508E508B432097508000F
:10044F00750F00751001E50964016005E50AB40137
:10045F0004D2A58002C2A5E513B4010675130012DC
:02046F00068CF9
:10047100D007D006D005D004D003D002D001D000DF
:0B048100D0D0D082D083D0F0D0E03289
:03002B0002070BBE
:10070B00C0E0C0D0C2CFE5146401600BE5156401F5
:10071B006005E516B40104B2968002D296D0D0D013
:02072B00E032BA
:10000E007F381207A87F0C1207A87F061207A87F59
:04001E00010207A82C
:1007A8008F3E120796C290C291853E80D295C2951F
:0107B800221E
:100796007580FFC290D291D295AF80C295EF20E7C7
:0107A600F65C
:0107A700222F
:1006BF008B3A8A3B893C120770AB3AAA3BA93C1292
:1006CF00002E6013053CE53C7002053B14F9120047
:0806DF002EFF1207B980E22290
:10077000ED7007EF2480F53D8005EF24C0F53DAF17
:040780003D0207A887
:1007B900AE07120796D290C2918E80D295C2952229
:1006580041542B435343533D2247534D220D0A0027
:1006680041542B434D47463D310D0A0041542B431D
:100678004D47533D223133393032353430333538F4
:04068800220D0A0035
:0C04B5000A445761726E696E67217E0078
:10074400758920758DFD758BFDC2ABD28EC29FD28B
:060754009ED29CD2AC22F3
:030023000207D6FB
:0507D600859939C2986D
:0107DB0032EB
:080003008F993099FDC299228A
:10075A0012002E6010F5993099FDC299740129F999
:06076A00E43AFA80EB22E4
:0905D2007BFF12075A7F037E0033
:0405DB008E358F3694
:1005DF00E4F537F538C3E5389536E53795355025C9
:1005EF00E4F583F582AF82AE83E4FCFD7BFF7AFFF7
:1005FF00F9F8D31201764003A380EA0538E5387085
:05060F00D4053780D086
:0106140022C3
:10068C007A0679581205D27A0679681205D27BFF60
:10069C007A06797412075A7F057E001205DB7B00FF
:1006AC007A00794412075A7F1A1200037F0A7E00DF
:0306BC000205DB59
:1004C100012200012300013000013100012C000153
:1004D1002400012500013200013300012E00012119
:0104E100001A
:10072D00D3EF9400EE9400400DE4FD0DBD1BFCEFE6
:06073D001F70ED1E80EAB2
:010743002293
:0C07C900153A153A153A153A153A153A4A
:0107D5002201
:10061500E4FF752A0220A007AE2A052AEE70F6121D
:1006250007C91207C91207C9E4F52F30A003752FB2
:1006350001752A0230A007AE2A052AEE70F6E52AD2
:100645006401600EE53425E0F534E52F42340FBF33
:0206550008C0DB
:010657002280
:10023F00C2A07FB47E0012072DD2A01207C91207E9
:10024F00C91207C91207C9D2A020A05AC28CC28EE8
:10025F00752A0220A007AF2A052AEF70F6752A0229
:10026F0030A007AF2A052AEF70F612061585343233
:10027F00120615853433120615853424120615859A
:10028F00342512061585342ED2A0E52425252532D6
:10029F002533F52FB52E0F85323085333185242246
:0B02AF00852523852E2CD28CD28E22B8
:030000000201B347
:0C01B300787FE4F6D8FD75814D0201FA5A
:10002E00BB010689828A83E0225002E722BBFE02D0
:09003E00E32289828A83E4932203
:10004700BB010689828A83F0225002F722BBFE0198
:02005700F32292
:10005900E88FF0A4CC8BF0A42CFCE98EF0A42CFC46
:100069008AF0EDA42CFCEA8EF0A4CDA8F08BF0A4C4
:100079002DCC3825F0FDE98FF0A42CCD35F0FCEB23
:100089008EF0A4FEA9F0EB8FF0A4CFC5F02ECD39E8
:0F009900FEE43CFCEAA42DCE35F0FDE43CFC2255
:1000A80075F008758200EF2FFFEE33FECD33CDCC0F
:1000B80033CCC58233C5829BED9AEC99E582984092
:1000C8000CF582EE9BFEED9AFDEC99FC0FD5F0D66F
:1000D800E4CEFBE4CDFAE4CCF9A88222B800C1B999
:1000E8000059BA002DEC8BF084CFCECDFCE5F0CBD7
:1000F800F97818EF2FFFEE33FEED33FDEC33FCEB10
:1001080033FB10D703994004EB99FB0FD8E5E4F9CA
:10011800FA227818EF2FFFEE33FEED33FDEC33FCB7
:10012800C933C910D7059BE99A4007EC9BFCE99AAB
:10013800F90FD8E0E4C9FAE4CCFB2275F010EF2FF0
:10014800FFEE33FEED33FDCC33CCC833C810D707F0
:100158009BEC9AE899400AED9BFDEC9AFCE899F82B
:0E0168000FD5F0DAE4CDFBE4CCFAE4C8F922BE
:10058E00C2D5E830E70FB2D5E4C39BFBE49AFAE498
:10059E0099F9E498F8EC30E717B2D51205C41200B9
:1005AE00E4E4C39BFBE49AFAE499F9E498F8800337
:1005BE001200E430D50DE4C39FFFE49EFEE49DFDE2
:0405CE00E49CFC228B
:10017600EB9FF5F0EA9E42F0E99D42F0EC6480C800
:0601860064809845F022A0
:10018C00E8600FECC313FCED13FDEE13FEEF13FF51
:03019C00D8F12275
:10019F00E86010ECA2E713FCED13FDEE13FEEF1376
:0401AF00FFD8F02263
:1001BF000204E3E493A3F8E493A34003F68001F26F
:1001CF0008DFF48029E493A3F85407240CC8C33341
:1001DF00C4540F4420C8834004F456800146F6DF10
:1001EF00E4800B010204081020408090048CE47E10
:1001FF00019360BCA3FF543F30E509541FFEE49305
:10020F00A360010ECF54C025E060A840B8E493A3CB
:10021F00FAE493A3F8E493A3C8C582C8CAC583CAF6
:10022F00F0A3C8C582C8CAC583CADFE9DEE780BEAE
:0104E2000019
:00000001FF
