:10078300217E0020200054656D703A0048756D6924
:020793003A002A
:1004E200010B00010D00010C00010E00020F0000C3
:1004F200021100000114000115000116000109009B
:09050200010A00011302010800C6
:0602BA007B007A007917B9
:0602C0008B3A8A3B893CE9
:1002C600E4FFF53DEDC394005015EDF404FD053C47
:1002D600E53C7002053B14F9742D120047053DED0F
:1002E60075F00A84AC070F743E2CF8A6F0ED75F095
:1002F6000A84FDD3940050E7EF253DF53DAE071F78
:10030600D3EE64809480401C743E2FF8E62430FEC1
:10031600AB3A053CE53CAA3B7002053B14F9EE12EC
:0E032600004780D9AB3AAA3BA93CE40200474D
:10033400753D00753C10753B0E753A00E4FCFDAB51
:100344003DAA3CA93BA83A120059E47BE87A03F998
:10035400F81200E48F3D8E3C8D3B8C3AC3E4953D0E
:10036400F53DE4953CF53C7401953BF53BE4953A49
:10037400F53AE53D240DF53DE4353CF53CE4353BEB
:10038400F53BE4353AF53AAF3DAE3CAD3BFC78087D
:1003940012018C8F0B853D0D850B8C850D8A53893D
:0803A400F0438901D2A9D28CBB
:0103AC00222E
:100538008E3A8F3BE4F5C8AE3AAF3BAB07AA06F953
:10054800F8FF7E107D0EFC12058DC3E49FFFE49E2C
:10055800FE74019DFDE49CFC780812019F8FCBAED0
:100568003AAF3BAB07AA06E4F9F8FF7E107D0EFC14
:1005780012058DEFF404F5CA85CBCD85CACCD2AD72
:05058800D2BDD2CA2221
:1006E600AD221202BA7B007A007917E4FD7F06126A
:1006F60006BEAD301202BA7B007A0079177D017F03
:04070600060206BE23
:1003AD00E522C394237BFF40137A077983E4FD7F15
:1003BD000E1206BE750A0175150180107A07798631
:1003CD00E4FD7F0E1206BEE4F50AF515E530C39483
:1003DD003C7BFF40107A0779837D017F0E1206BEAC
:1003ED00751601800E7A0779867D017F0E1206BE85
:1003FD00E4F51620A1197F017E0012072C20A1140F
:10040D00751401750901E513B4020975130122E490
:05041D00F514F50922B1
:10048C007590FFC2A7D2A6C2A5D2AF7F147E001270
:10049C0003347FE87E0312053812000E1207437BEB
:1004AC00FF7A077989E4FDFF1206BE7BFF7A077994
:1004BC008F7D01E4FF1206BE7F017E0012072C1215
:1004CC00023FE5106401450F70F5F50FF5101206AB
:0604DC00E61203AD80E909
:03000B00020422CA
:10042200C0E0C0F0C083C082C0D075D000C000C0A0
:0D04320001C002C003C004C005C006C00721
:10043F00850B8C850D8A0508E508B432097508000F
:10044F00750F00751001E50964016005E50AB40137
:10045F0004D2A58002C2A5E513B4010675130012DC
:02046F00068BFA
:10047100D007D006D005D004D003D002D001D000DF
:0B048100D0D0D082D083D0F0D0E03289
:03002B0002070ABF
:10070A00C0E0C0D0C2CFE5146401600BE5156401F6
:10071A006005E516B40104B2968002D296D0D0D014
:02072A00E032BB
:10000E007F381207A77F0C1207A77F061207A77F5C
:04001E00010207A72D
:1007A7008F3E120795C290C291853E80D295C29521
:0107B700221F
:100795007580FFC290D291D295AF80C295EF20E7C8
:0107A500F65D
:0107A6002230
:1006BE008B3A8A3B893C12076FAB3AAA3BA93C1294
:1006CE00002E6013053CE53C7002053B14F9120048
:0806DE002EFF1207B880E22292
:10076F00ED7007EF2480F53D8005EF24C0F53DAF18
:04077F003D0207A789
:1007B800AE07120795D290C2918E80D295C295222B
:1006570041542B435343533D2247534D220D0A0028
:1006670041542B434D47463D310D0A0041542B431E
:100677004D47533D223133393032353430333538F5
:04068700220D0A0036
:0B050B0009445761726E696E672100A1
:10074300758920758DFD758BFDC2ABD28EC29FD28C
:060753009ED29CD2AC22F4
:030023000207D5FC
:0507D500859939C2986E
:0107DA0032EC
:080003008F993099FDC299228A
:1007590012002E6010F5993099FDC299740129F99A
:06076900E43AFA80EB22E5
:0905D1007BFF1207597F037E0035
:0405DA008E358F3695
:1005DE00E4F537F538C3E5389536E53795355025CA
:1005EE00E4F583F582AF82AE83E4FCFD7BFF7AFFF8
:1005FE00F9F8D31201764003A380EA0538E5387086
:05060E00D4053780D087
:0106130022C4
:10068B007A0679571205D17A0679671205D17BFF65
:10069B007A0679731207597F057E001205DA7B0003
:1006AB007A0079441207597F1A1200037F0A7E00E1
:0306BB000205DA5B
:10051600012200012300013000013100012C0001FD
:100526002400012500013200013300012E000121C3
:0105360000C4
:10072C00D3EF9400EE9400400DE4FD0DBD1BFCEFE7
:06073C001F70ED1E80EAB3
:010742002294
:0C07C800153A153A153A153A153A153A4B
:0107D4002202
:10061400E4FF752A0220A007AE2A052AEE70F6121E
:1006240007C81207C81207C8E4F52F30A003752FB6
:1006340001752A0230A007AE2A052AEE70F6E52AD3
:100644006401600EE53425E0F534E52F42340FBF34
:0206540008C0DC
:010656002281
:10023F00C2A07FB47E0012072CD2A01207C81207EB
:10024F00C81207C81207C8D2A020A05AC28CC28EEB
:10025F00752A0220A007AF2A052AEF70F6752A0229
:10026F0030A007AF2A052AEF70F612061485343234
:10027F00120614853433120614853424120614859D
:10028F00342512061485342ED2A0E52425252532D7
:10029F002533F52FB52E0F85323085333185242246
:0B02AF00852523852E2CD28CD28E22B8
:030000000201B347
:0C01B300787FE4F6D8FD75814C0201FA5B
:10002E00BB010689828A83E0225002E722BBFE02D0
:09003E00E32289828A83E4932203
:10004700BB010689828A83F0225002F722BBFE0198
:02005700F32292
:10005900E88FF0A4CC8BF0A42CFCE98EF0A42CFC46
:100069008AF0EDA42CFCEA8EF0A4CDA8F08BF0A4C4
:100079002DCC3825F0FDE98FF0A42CCD35F0FCEB23
:100089008EF0A4FEA9F0EB8FF0A4CFC5F02ECD39E8
:0F009900FEE43CFCEAA42DCE35F0FDE43CFC2255
:1000A80075F008758200EF2FFFEE33FECD33CDCC0F
:1000B80033CCC58233C5829BED9AEC99E582984092
:1000C8000CF582EE9BFEED9AFDEC99FC0FD5F0D66F
:1000D800E4CEFBE4CDFAE4CCF9A88222B800C1B999
:1000E8000059BA002DEC8BF084CFCECDFCE5F0CBD7
:1000F800F97818EF2FFFEE33FEED33FDEC33FCEB10
:1001080033FB10D703994004EB99FB0FD8E5E4F9CA
:10011800FA227818EF2FFFEE33FEED33FDEC33FCB7
:10012800C933C910D7059BE99A4007EC9BFCE99AAB
:10013800F90FD8E0E4C9FAE4CCFB2275F010EF2FF0
:10014800FFEE33FEED33FDCC33CCC833C810D707F0
:100158009BEC9AE899400AED9BFDEC9AFCE899F82B
:0E0168000FD5F0DAE4CDFBE4CCFAE4C8F922BE
:10058D00C2D5E830E70FB2D5E4C39BFBE49AFAE499
:10059D0099F9E498F8EC30E717B2D51205C31200BB
:1005AD00E4E4C39BFBE49AFAE499F9E498F8800338
:1005BD001200E430D50DE4C39FFFE49EFEE49DFDE3
:0405CD00E49CFC228C
:10017600EB9FF5F0EA9E42F0E99D42F0EC6480C800
:0601860064809845F022A0
:10018C00E8600FECC313FCED13FDEE13FEEF13FF51
:03019C00D8F12275
:10019F00E86010ECA2E713FCED13FDEE13FEEF1376
:0401AF00FFD8F02263
:1001BF0002048CE493A3F8E493A34003F68001F2C6
:1001CF0008DFF48029E493A3F85407240CC8C33341
:1001DF00C4540F4420C8834004F456800146F6DF10
:1001EF00E4800B01020408102040809004E2E47EBA
:1001FF00019360BCA3FF543F30E509541FFEE49305
:10020F00A360010ECF54C025E060A840B8E493A3CB
:10021F00FAE493A3F8E493A3C8C582C8CAC583CAF6
:10022F00F0A3C8C582C8CAC583CADFE9DEE780BEAE
:0105370000C3
:00000001FF
